:100000000C9434000C943E000C943E000C943E0082
:100010000C943E000C943E000C943E000C943E0068
:100020000C943E000C943E000C943E000C943E0058
:100030000C943E000C943E000C943E000C943E0048
:100040000C943E000C943E000C943E000C943E0038
:100050000C943E000C943E000C943E000C943E0028
:100060000C943E000C943E0011241FBECFEFD8E04C
:10007000DEBFCDBF0E9440000C94B6060C94000079
:10008000CF93DF93CDB7DEB72F970FB6F894DEBFCF
:100090000FBECDBF8AE290E020E1FC01208387E221
:1000A00090E022E0FC01208384E290E021E0FC016A
:1000B00020838BE290E02FEFFC01208388E290E028
:1000C0002FEFFC01208385E290E02FEFFC012083DD
:1000D000198289E290E0FC01808188236CF089819B
:1000E000882F90E0019683709078992324F40197EB
:1000F0008C6F9F6F019689838981882F90E0823071
:10010000910541F08330910541F0019749F40E9437
:10011000030106C00E948B0203C00E94130400006A
:1001200080E090E0A8E4B2E48A839B83AC83BD8343
:1001300020E030E04AE753E46A817B818C819D8135
:100140000E942106DC01CB018E839F83A887B9879B
:1001500020E030E040E85FE36E817F81888599850B
:100160000E949B0588232CF481E090E09B878A877E
:100170003FC020E03FEF4FE757E46E817F818885E5
:1001800099850E941C0618164CF520E030E040E2EC
:1001900051E46A817B818C819D810E942106DC0172
:1001A000CB01BC01CD010E94A005DC01CB019B87E6
:1001B0008A870FC089E190E09D878C878C859D851B
:1001C0000197F1F79D878C878A859B8501979B878F
:1001D0008A878A859B85892B69F714C06E817F8108
:1001E000888599850E94A005DC01CB019B878A87C1
:1001F0008A859B859F878E878E859F850197F1F7DE
:100200009F878E8766CFCF93DF93CDB7DEB7AA9750
:100210000FB6F894DEBF0FBECDBF85E290E025E2B9
:1002200030E0F901308121E02327FC01208380E0C8
:1002300090E0A8ECB3E489839A83AB83BC8320E08D
:1002400030E04AE753E469817A818B819C810E9486
:100250002106DC01CB0189A39AA3ABA3BCA320E0B8
:1002600030E040E85FE369A17AA18BA19CA10E94E4
:100270009B0588232CF481E090E09EA38DA33FC0D2
:1002800020E03FEF4FE757E469A17AA18BA19CA141
:100290000E941C0618164CF520E030E040E251E4C4
:1002A00069817A818B819C810E942106DC01CB01CE
:1002B000BC01CD010E94A005DC01CB019EA38DA352
:1002C0000FC089E190E098A78FA38FA198A501970F
:1002D000F1F798A78FA38DA19EA101979EA38DA34F
:1002E0008DA19EA1892B69F714C069A17AA18BA168
:1002F0009CA10E94A005DC01CB019EA38DA38DA132
:100300009EA19AA789A789A59AA50197F1F79AA70F
:1003100089A788E290E028E230E0F901308122E00C
:100320002327FC01208380E090E0A8ECB3E48D83D8
:100330009E83AF83B88720E030E04AE753E46D81C5
:100340007E818F8198850E942106DC01CB018F8BF5
:10035000988FA98FBA8F20E030E040E85FE36F8983
:10036000788D898D9A8D0E949B0588232CF481E0DD
:1003700090E09C8F8B8F3FC020E03FEF4FE757E42A
:100380006F89788D898D9A8D0E941C0618164CF500
:1003900020E030E040E251E46D817E818F819885DC
:1003A0000E942106DC01CB01BC01CD010E94A00509
:1003B000DC01CB019C8F8B8F0FC089E190E09E8F79
:1003C0008D8F8D8D9E8D0197F1F79E8F8D8F8B8DEB
:1003D0009C8D01979C8F8B8F8B8D9C8D892B69F7C2
:1003E00014C06F89788D898D9A8D0E94A005DC01DB
:1003F000CB019C8F8B8F8B8D9C8D98A38F8F8F8D36
:1004000098A10197F1F798A38F8F8BE290E02BE2F0
:1004100030E0F901308120E12327FC01208380E0D6
:1004200090E0A8ECB3E489879A87AB87BC8720E08B
:1004300030E04AE753E469857A858B859C850E9484
:100440002106DC01CB018D879E87AF87B88B20E02A
:1004500030E040E85FE36D857E858F8598890E9456
:100460009B0588232CF481E090E09A8B898B3FC018
:1004700020E03FEF4FE757E46D857E858F859889B3
:100480000E941C0618164CF520E030E040E251E4D2
:1004900069857A858B859C850E942106DC01CB01CC
:1004A000BC01CD010E94A005DC01CB019A8B898B98
:1004B0000FC089E190E09C8B8B8B8B899C89019785
:1004C000F1F79C8B8B8B89899A8901979A8B898B01
:1004D00089899A89892B69F714C06D857E858F85F6
:1004E00098890E94A005DC01CB019A8B898B8989B0
:1004F0009A899E8B8D8B8D899E890197F1F79E8BB2
:100500008D8B0000AA960FB6F894DEBF0FBECDBF4C
:10051000DF91CF910895CF93DF93CDB7DEB7AA9740
:100520000FB6F894DEBF0FBECDBF8BE290E02BE29A
:1005300030E0F901308120E12327FC01208380E0B5
:1005400090E0A8E4B3E489839A83AB83BC8320E082
:1005500030E04AE753E469817A818B819C810E9473
:100560002106DC01CB0189A39AA3ABA3BCA320E0A5
:1005700030E040E85FE369A17AA18BA19CA10E94D1
:100580009B0588232CF481E090E09EA38DA33FC0BF
:1005900020E03FEF4FE757E469A17AA18BA19CA12E
:1005A0000E941C0618164CF520E030E040E251E4B1
:1005B00069817A818B819C810E942106DC01CB01BB
:1005C000BC01CD010E94A005DC01CB019EA38DA33F
:1005D0000FC089E190E098A78FA38FA198A50197FC
:1005E000F1F798A78FA38DA19EA101979EA38DA33C
:1005F0008DA19EA1892B69F714C069A17AA18BA155
:100600009CA10E94A005DC01CB019EA38DA38DA11E
:100610009EA19AA789A789A59AA50197F1F79AA7FC
:1006200089A788E290E028E230E0F901308122E0F9
:100630002327FC01208380E090E0A8E4B3E48D83CD
:100640009E83AF83B88720E030E04AE753E46D81B2
:100650007E818F8198850E942106DC01CB018F8BE2
:10066000988FA98FBA8F20E030E040E85FE36F8970
:10067000788D898D9A8D0E949B0588232CF481E0CA
:1006800090E09C8F8B8F3FC020E03FEF4FE757E417
:100690006F89788D898D9A8D0E941C0618164CF5ED
:1006A00020E030E040E251E46D817E818F819885C9
:1006B0000E942106DC01CB01BC01CD010E94A005F6
:1006C000DC01CB019C8F8B8F0FC089E190E09E8F66
:1006D0008D8F8D8D9E8D0197F1F79E8F8D8F8B8DD8
:1006E0009C8D01979C8F8B8F8B8D9C8D892B69F7AF
:1006F00014C06F89788D898D9A8D0E94A005DC01C8
:10070000CB019C8F8B8F8B8D9C8D98A38F8F8F8D22
:1007100098A10197F1F798A38F8F85E290E025E2E9
:1007200030E0F901308121E02327FC01208380E0C3
:1007300090E0A8E4B3E489879A87AB87BC8720E080
:1007400030E04AE753E469857A858B859C850E9471
:100750002106DC01CB018D879E87AF87B88B20E017
:1007600030E040E85FE36D857E858F8598890E9443
:100770009B0588232CF481E090E09A8B898B3FC005
:1007800020E03FEF4FE757E46D857E858F859889A0
:100790000E941C0618164CF520E030E040E251E4BF
:1007A00069857A858B859C850E942106DC01CB01B9
:1007B000BC01CD010E94A005DC01CB019A8B898B85
:1007C0000FC089E190E09C8B8B8B8B899C89019772
:1007D000F1F79C8B8B8B89899A8901979A8B898BEE
:1007E00089899A89892B69F714C06D857E858F85E3
:1007F00098890E94A005DC01CB019A8B898B89899D
:100800009A899E8B8D8B8D899E890197F1F79E8B9E
:100810008D8B0000AA960FB6F894DEBF0FBECDBF39
:10082000DF91CF910895CF93DF93CDB7DEB7AA972D
:100830000FB6F894DEBF0FBECDBF88E290E028E28D
:1008400030E0F901308122E02327FC01208380E0A1
:1008500090E0A6E1B4E489839A83AB83BC8320E073
:1008600030E04AE753E469817A818B819C810E9460
:100870002106DC01CB0189A39AA3ABA3BCA320E092
:1008800030E040E85FE369A17AA18BA19CA10E94BE
:100890009B0588232CF481E090E09EA38DA33FC0AC
:1008A00020E03FEF4FE757E469A17AA18BA19CA11B
:1008B0000E941C0618164CF520E030E040E251E49E
:1008C00069817A818B819C810E942106DC01CB01A8
:1008D000BC01CD010E94A005DC01CB019EA38DA32C
:1008E0000FC089E190E098A78FA38FA198A50197E9
:1008F000F1F798A78FA38DA19EA101979EA38DA329
:100900008DA19EA1892B69F714C069A17AA18BA141
:100910009CA10E94A005DC01CB019EA38DA38DA10B
:100920009EA19AA789A789A59AA50197F1F79AA7E9
:1009300089A785E290E025E230E0F901308121E0ED
:100940002327FC01208380E090E0A6E1B4E48D83BE
:100950009E83AF83B88720E030E04AE753E46D819F
:100960007E818F8198850E942106DC01CB018F8BCF
:10097000988FA98FBA8F20E030E040E85FE36F895D
:10098000788D898D9A8D0E949B0588232CF481E0B7
:1009900090E09C8F8B8F3FC020E03FEF4FE757E404
:1009A0006F89788D898D9A8D0E941C0618164CF5DA
:1009B00020E030E040E251E46D817E818F819885B6
:1009C0000E942106DC01CB01BC01CD010E94A005E3
:1009D000DC01CB019C8F8B8F0FC089E190E09E8F53
:1009E0008D8F8D8D9E8D0197F1F79E8F8D8F8B8DC5
:1009F0009C8D01979C8F8B8F8B8D9C8D892B69F79C
:100A000014C06F89788D898D9A8D0E94A005DC01B4
:100A1000CB019C8F8B8F8B8D9C8D98A38F8F8F8D0F
:100A200098A10197F1F798A38F8F8BE290E02BE2CA
:100A300030E0F901308120E12327FC01208380E0B0
:100A400090E0A6E1B4E489879A87AB87BC8720E071
:100A500030E04AE753E469857A858B859C850E945E
:100A60002106DC01CB018D879E87AF87B88B20E004
:100A700030E040E85FE36D857E858F8598890E9430
:100A80009B0588232CF481E090E09A8B898B3FC0F2
:100A900020E03FEF4FE757E46D857E858F8598898D
:100AA0000E941C0618164CF520E030E040E251E4AC
:100AB00069857A858B859C850E942106DC01CB01A6
:100AC000BC01CD010E94A005DC01CB019A8B898B72
:100AD0000FC089E190E09C8B8B8B8B899C8901975F
:100AE000F1F79C8B8B8B89899A8901979A8B898BDB
:100AF00089899A89892B69F714C06D857E858F85D0
:100B000098890E94A005DC01CB019A8B898B898989
:100B10009A899E8B8D8B8D899E890197F1F79E8B8B
:100B20008D8B0000AA960FB6F894DEBF0FBECDBF26
:100B3000DF91CF9108950E94CF0508F481E00895D8
:100B40000E94FB0588F09F5798F0B92F9927B7515D
:100B5000B0F0E1F0660F771F881F991F1AF0BA9561
:100B6000C9F714C0B13091F00E941506B1E00895A4
:100B70000C941506672F782F8827B85F39F0B93F96
:100B8000CCF3869577956795B395D9F73EF4909514
:100B90008095709561957F4F8F4F9F4F0895990F66
:100BA0000008550FAA0BE0E8FEEF16161706E80737
:100BB000F907C0F012161306E407F50798F0621B58
:100BC000730B840B950B39F40A2661F0232B242B2D
:100BD000252B21F408950A2609F4A140A6958FEF4C
:100BE000811D811D089557FD9058440F551F59F0E0
:100BF0005F3F71F04795880F97FB991F61F09F3F0A
:100C000079F087950895121613061406551FF2CF32
:100C10004695F1DF08C0161617061806991FF1CF82
:100C200086957105610508940895E894BB276627A9
:100C30007727CB0197F908950E94CF0508F48FEF2D
:100C400008950E9434060C94A5060E94970638F079
:100C50000E949E0620F0952311F00C948E060C94B1
:100C6000940611240C9416060E94F30570F3959FC8
:100C7000C1F3950F50E0551F629FF001729FBB2793
:100C8000F00DB11D639FAA27F00DB11DAA1F649F2F
:100C90006627B00DA11D661F829F2227B00DA11DE2
:100CA000621F739FB00DA11D621F839FA00D611D68
:100CB000221F749F3327A00D611D231F849F600D89
:100CC000211D822F762F6A2F11249F5750409AF0B2
:100CD000F1F088234AF0EE0FFF1FBB1F661F771F3E
:100CE000881F91505040A9F79E3F510580F00C9409
:100CF0008E060C9416065F3FE4F3983ED4F3869577
:100D000077956795B795F795E7959F5FC1F7FE2BA8
:100D1000880F911D9695879597F9089597F99F6784
:100D200080E870E060E008959FEF80EC0895002473
:100D30000A941616170618060906089500240A9440
:100D400012161306140605060895092E0394000CC6
:100D500011F4882352F0BB0F40F4BF2B11F460FF55
:100D600004C06F5F7F4F8F4F9F4F0895F894FFCF60
:00000001FF
