:100000000C943C000C9446000C9446000C94460062
:100010000C9446000C9446000C9446000C94460048
:100020000C9446000C9446000C9446000C94460038
:100030000C9446000C9446000C9446000C94460028
:100040000C9446000C9446000C9446000C94460018
:100050000C9446000C9446000C9446000C94460008
:100060000C9446000C944600407924301912027812
:10007000001808034621060E11241FBECFEFD8E05A
:10008000DEBFCDBF0E9448000C9417020C94000004
:10009000CF93DF93CDB7DEB762970FB6F894DEBF8C
:1000A0000FBECDBF198284E290E02EE7FC012083D1
:1000B00085E290E021E0FC0120838AE290E02FEFCE
:1000C000FC01208381EC90E0FC01108283E290E04F
:1000D000FC018081882F90E081709927892B41F461
:1000E00089818F3011F4198203C089818F5F8983E0
:1000F0008BE290E02981222F30E028593F4F3B834B
:100100002A832A813B81F90124912C832C81FC01D3
:10011000208380E090E0A8ECB2E48D839E83AF83DF
:10012000B88720E030E04AE755E46D817E818F8119
:1001300098850E948201DC01CB0189879A87AB8771
:10014000BC8720E030E040E85FE369857A858B85F5
:100150009C850E94FC0088232CF481E090E09E871F
:100160008D873FC020E03FEF4FE757E469857A85F0
:100170008B859C850E947D0118164CF520E030E0AF
:1001800040E251E46D817E818F8198850E948201D9
:10019000DC01CB01BC01CD010E940101DC01CB01DE
:1001A0009E878D870FC080E991E0988B8F878F8520
:1001B00098890197F1F7988B8F878D859E85019798
:1001C0009E878D878D859E85892B69F714C06985EB
:1001D0007A858B859C850E940101DC01CB019E877D
:1001E0008D878D859E859A8B898B89899A890197C0
:1001F000F1F79A8B898B6ACF0E94300108F481E075
:1002000008950E945C0188F09F5798F0B92F9927B4
:10021000B751B0F0E1F0660F771F881F991F1AF0F1
:10022000BA95C9F714C0B13091F00E947601B1E0DF
:1002300008950C947601672F782F8827B85F39F0DE
:10024000B93FCCF3869577956795B395D9F73EF48A
:1002500090958095709561957F4F8F4F9F4F089532
:10026000990F0008550FAA0BE0E8FEEF16161706C7
:10027000E807F907C0F012161306E407F50798F02F
:10028000621B730B840B950B39F40A2661F0232B48
:10029000242B252B21F408950A2609F4A140A695C4
:1002A0008FEF811D811D089557FD9058440F551FF4
:1002B00059F05F3F71F04795880F97FB991F61F0E8
:1002C0009F3F79F087950895121613061406551F5F
:1002D000F2CF4695F1DF08C0161617061806991FCB
:1002E000F1CF86957105610508940895E894BB27C0
:1002F00066277727CB0197F908950E94300108F40B
:100300008FEF08950E9495010C9406020E94F80157
:1003100038F00E94FF0120F0952311F00C94EF01BA
:100320000C94F50111240C9477010E94540170F390
:10033000959FC1F3950F50E0551F629FF001729F8A
:10034000BB27F00DB11D639FAA27F00DB11DAA1F99
:10035000649F6627B00DA11D661F829F2227B00DE6
:10036000A11D621F739FB00DA11D621F839FA00D71
:10037000611D221F749F3327A00D611D231F849FC1
:10038000600D211D822F762F6A2F11249F57504018
:100390009AF0F1F088234AF0EE0FFF1FBB1F661F93
:1003A000771F881F91505040A9F79E3F510580F05C
:1003B0000C94EF010C9477015F3FE4F3983ED4F383
:1003C000869577956795B795F795E7959F5FC1F700
:1003D000FE2B880F911D9695879597F9089597F9AB
:1003E0009F6780E870E060E008959FEF80EC0895DB
:1003F00000240A9416161706180609060895002404
:100400000A9412161306140605060895092E03947D
:10041000000C11F4882352F0BB0F40F4BF2B11F4F1
:1004200060FF04C06F5F7F4F8F4F9F4F0895F89418
:02043000FFCFFC
:00000001FF
