:100000000C9445000C944F000C944F000C944F003E
:100010000C944F000C944F000C944F000C944F0024
:100020000C944F000C944F000C944F000C944F0014
:100030000C944F000C944F000C944F000C944F0004
:100040000C944F000C944F000C944F000C944F00F4
:100050000C944F000C944F000C944F000C944F00E4
:100060000C944F000C944F0041424344454647488E
:10007000494A4B4C4D4E4F500051525354555658CF
:10008000595A203132333435360011241FBECFEF98
:10009000D8E0DEBFCDBF0E941F1B0C94FB1C0C944C
:1000A00000000F931F93CF93DF93CDB7DEB7C057F8
:1000B000D1090FB6F894DEBF0FBECDBF9E01215906
:1000C0003F4FF9018083CE0180599F4FFC0160832F
:1000D0008BE290E09E0121593F4FF9012081FC0104
:1000E0002083CE0180599F4FFC018081882351F4E9
:1000F00085E290E025E230E0F90120812D7FFC01CE
:10010000208309C085E290E025E230E0F9012081FA
:100110002260FC01208380E090E0A0E8BFE38D83B3
:100120009E83AF83B8878E01075B1F4F2BEA3AEAA5
:100130004AEA50E46D817E818F8198850E948E1CF1
:10014000DC01CB01F80180839183A283B3838E010C
:10015000035B1F4F20E030E040E850E46D817E817A
:100160008F8198850E948E1CDC01CB01F801808371
:100170009183A283B383CE01875B9F4F20E030E061
:1001800040E85FE3FC0160817181828193810E947C
:100190006E1B88233CF4CE018F5A9F4F21E0FC0157
:1001A00020832CC1CE01835B9F4F20E03FEF4FE7C0
:1001B00057E4FC0160817181828193810E94891CD6
:1001C00018160CF0CDC020E030E04AE754E46D8111
:1001D0007E818F8198850E94731BDC01CB019E017B
:1001E0002E5A3F4FF90180839183A283B3838E01FE
:1001F0000A5A1F4FCE018E5A9F4F20E030E04AE747
:1002000055E4FC0160817181828193810E948E1C82
:10021000DC01CB01F80180839183A283B383CE01FB
:100220008A5A9F4F20E030E040E85FE3FC016081A4
:100230007181828193810E946E1B88234CF4CE01D0
:10024000865A9F4F21E030E0FC01318320836DC04E
:10025000CE018A5A9F4F20E03FEF4FE757E4FC0161
:1002600060817181828193810E94891C18160CF033
:100270004AC0CE018E5A9F4F20E030E040E251E468
:10028000FC0160817181828193810E948E1CDC015E
:10029000CB018E01065A1F4FBC01CD010E94E51B08
:1002A000DC01CB01F8019183808324C0CE01845A04
:1002B0009F4F20E931E0FC0131832083CE01845A35
:1002C0009F4FFC01808191810197F1F79E01245A93
:1002D0003F4FF90191838083CE01865A9F4F9E0143
:1002E000265A3F4FF9012081318121503109FC010B
:1002F00031832083CE01865A9F4FFC0180819181FA
:10030000892BA1F67BC08E01065A1F4FCE018A5A57
:100310009F4FFC0160817181828193810E94E51B66
:10032000DC01CB01F80191838083CE01825A9F4F7B
:100330009E01265A3F4FF90120813181FC01318312
:100340002083CE01825A9F4FFC01808191810197C9
:10035000F1F79E01225A3F4FF901918380834EC0ED
:10036000CE01875B9F4F20E030E04FE753E4FC0174
:1003700060817181828193810E94891C18166CF5BD
:100380008E01005A1F4FCE01835B9F4FFC0160819D
:100390007181828193810E94E51BDC01CB01F80110
:1003A00091838083CE018E599F4F9E01205A3F4FEB
:1003B000F90120813181FC0131832083CE018E59E6
:1003C0009F4FFC01808191810197F1F79E012E5989
:1003D0003F4FF9019183808328C08E010F5A1F4F30
:1003E000CE01875B9F4FFC01608171818281938187
:1003F0000E94E51BDC01CB01F8018083CE018C5902
:100400009F4F9E012F5A3F4FF9012081FC0120830D
:10041000CE018C599F4FFC018081282F2A95F1F73E
:10042000CE018C599F4FFC01208385E290E025E2AC
:1004300030E0F90120812160FC01208380E090E020
:10044000A0E8BFE389879A87AB87BC872BEA3AEAA3
:100450004AEA50E469857A858B859C850E948E1CCA
:10046000DC01CB018DA79EA7AFA7B8AB20E030E0A1
:1004700040E850E469857A858B859C850E948E1CB6
:10048000DC01CB0189AB9AABABABBCAB20E030E07D
:1004900040E85FE36DA57EA58FA598A90E946E1B1D
:1004A00088231CF481E08DABDEC020E03FEF4FE7F6
:1004B00057E469A97AA98BA99CA90E94891C1816DE
:1004C0000CF093C020E030E04AE754E469857A8577
:1004D0008B859C850E94731BDC01CB018EAB9FAB8F
:1004E000A8AFB9AF20E030E04AE755E46EA97FA994
:1004F00088AD99AD0E948E1CDC01CB018AAF9BAF09
:10050000ACAFBDAF20E030E040E85FE36AAD7BAD6B
:100510008CAD9DAD0E946E1B88232CF481E090E091
:100520009FAF8EAF4BC020E03FEF4FE757E46AAD7F
:100530007BAD8CAD9DAD0E94891C1816ACF520E0FA
:1005400030E040E251E46EA97FA988AD99AD0E94E8
:100550008E1CDC01CB01BC01CD010E94E51BDC013E
:10056000CB019FAF8EAF1BC0CE01805C9F4F20E9B7
:1005700031E0FC0131832083CE01805C9F4FFC0180
:10058000808191810197F1F79E01205C3F4FF90135
:10059000918380838EAD9FAD01979FAF8EAF8EAD5F
:1005A0009FAD892B09F75FC06AAD7BAD8CAD9DAD6A
:1005B0000E94E51BDC01CB019FAF8EAFCE018E5BAD
:1005C0009F4F2EAD3FADFC0131832083CE018E5B6A
:1005D0009F4FFC01808191810197F1F79E012E5B75
:1005E0003F4FF901918380833EC020E030E04FE728
:1005F00053E46DA57EA58FA598A90E94891C1816A5
:100600004CF58E010C5B1F4F69A97AA98BA99CA997
:100610000E94E51BDC01CB01F80191838083CE01B0
:100620008A5B9F4F9E012C5B3F4FF90120813181F6
:10063000FC0131832083CE018A5B9F4FFC018081C6
:1006400091810197F1F79E012A5B3F4FF901918358
:1006500080831CC06DA57EA58FA598A90E94E51B6F
:10066000DC01CB018DABCE01885B9F4F2DA9FC0136
:100670002083CE01885B9F4FFC018081282F2A9523
:10068000F1F7CE01885B9F4FFC01208385E290E06B
:1006900025E230E0F90120812E7FFC01208380E0FB
:1006A00090E0A4E3B2E48D879E87AF87B88B2BEAF6
:1006B0003AEA4AEA50E46D857E858F8598890E94E2
:1006C0008E1CDC01CB01898B9A8BAB8BBC8B20E021
:1006D00030E040E850E46D857E858F8598890E94E2
:1006E0008E1CDC01CB018D8B9E8BAF8BB88F20E0F5
:1006F00030E040E85FE369897A898B899C890E94B0
:100700006E1B88231CF481E0898FB2C020E03FEF8C
:100710004FE757E46D897E898F89988D0E94891CE7
:1007200018160CF07BC020E030E04AE754E46D85F9
:100730007E858F8598890E94731BDC01CB018A8F8F
:100740009B8FAC8FBD8F20E030E04AE755E46A8D87
:100750007B8D8C8D9D8D0E948E1CDC01CB018E8F3C
:100760009F8FA8A3B9A320E030E040E85FE36E8D3F
:100770007F8D88A199A10E946E1B88232CF481E0B3
:1007800090E09BA38AA33FC020E03FEF4FE757E4F0
:100790006E8D7F8D88A199A10E94891C18164CF539
:1007A00020E030E040E251E46A8D7B8D8C8D9D8DA0
:1007B0000E948E1CDC01CB01BC01CD010E94E51B17
:1007C000DC01CB019BA38AA30FC080E991E09DA32C
:1007D0008CA38CA19DA10197F1F79DA38CA38AA165
:1007E0009BA101979BA38AA38AA19BA1892B69F74F
:1007F0003FC06E8D7F8D88A199A10E94E51BDC0111
:10080000CB019BA38AA38AA19BA19FA38EA38EA1A8
:100810009FA10197F1F79FA38EA32AC020E030E0AB
:100820004FE753E469897A898B899C890E94891CE6
:100830001816ACF46D897E898F89988D0E94E51B0E
:10084000DC01CB0199A788A788A599A59BA78AA7B2
:100850008AA59BA50197F1F79BA78AA70FC0698975
:100860007A898B899C890E94E51BDC01CB01898FE9
:10087000898D8CA78CA58A95F1F78CA7CE0180591C
:100880009F4FFC018081882309F0C0C0CE018159AF
:100890009F4FFC018081843008F0B8C080E090E078
:1008A000A0E0B0E489839A83AB83BC838E010B59AB
:1008B0001F4F20E030E04AE755E469817A818B815F
:1008C0009C810E948E1CDC01CB01F8018083918306
:1008D000A283B383CE018B599F4F20E030E040E8E4
:1008E0005FE3FC0160817181828193810E946E1BB4
:1008F00088234CF4CE0187599F4F21E030E0FC0162
:100900003183208369C0CE018B599F4F20E03FEF98
:100910004FE757E4FC0160817181828193810E94DD
:10092000891C18160CF046C020E030E040E251E48B
:1009300069817A818B819C810E948E1CDC01CB01B4
:100940008E0107591F4FBC01CD010E94E51BDC0140
:10095000CB01F8019183808324C0CE0185599F4F3C
:1009600020E931E0FC0131832083CE0185599F4F7E
:10097000FC01808191810197F1F79E0125593F4F3C
:10098000F90191838083CE0187599F4F9E0127599A
:100990003F4FF9012081318121503109FC01318320
:1009A0002083CE0187599F4FFC0180819181892B43
:1009B000A1F62CC08E0107591F4FCE018B599F4FB6
:1009C000FC0160817181828193810E94E51BDC01C1
:1009D000CB01F80191838083CE0183599F4F9E0103
:1009E00027593F4FF90120813181FC013183208358
:1009F000CE0183599F4FFC01808191810197F1F7CE
:100A00009E0123593F4FF901918380830000C05913
:100A1000DF4F0FB6F894DEBF0FBECDBFDF91CF9191
:100A20001F910F9108950F931F93CF93DF93CDB72D
:100A3000DEB7CC5BD1400FB6F894DEBF0FBECDBFA2
:100A400085E290E025E230E0F90120812D7FFC0174
:100A5000208380E090E0A0E7B1E489839A83AB83B0
:100A6000BC838E010D541E4F20E030E04AE755E470
:100A700069817A818B819C810E948E1CDC01CB0173
:100A8000F80180839183A283B383CE018D549E4F5E
:100A900020E030E040E85FE3FC0160817181828109
:100AA00093810E946E1B88234CF4CE0189549E4F83
:100AB00021E030E0FC013183208369C0CE018D54F8
:100AC0009E4F20E03FEF4FE757E4FC0160817181CA
:100AD000828193810E94891C18160CF046C020E088
:100AE00030E040E251E469817A818B819C810E94EF
:100AF0008E1CDC01CB018E0109541E4FBC01CD01BF
:100B00000E94E51BDC01CB01F8019183808324C0A6
:100B1000CE0187549E4F20E931E0FC0131832083D0
:100B2000CE0187549E4FFC01808191810197F1F79E
:100B30009E0127543E4FF90191838083CE01895451
:100B40009E4F9E0129543E4FF90120813181215051
:100B50003109FC0131832083CE0189549E4FFC0171
:100B600080819181892BA1F62CC08E0109541E4FE2
:100B7000CE018D549E4FFC016081718182819381F1
:100B80000E94E51BDC01CB01F80191838083CE013B
:100B900085549E4F9E0129543E4FF9012081318199
:100BA000FC0131832083CE0185549E4FFC0180815E
:100BB00091810197F1F79E0125543E4FF9019183F0
:100BC00080838BE290E028E3FC01208380E090E0CA
:100BD000A0E8BFE38D839E83AF83B8878E0109565B
:100BE0001E4F2BEA3AEA4AEA50E46D817E818F81FA
:100BF00098850E948E1CDC01CB01F80180839183D3
:100C0000A283B3838E0105561E4F20E030E040E8FA
:100C100050E46D817E818F8198850E948E1CDC015D
:100C2000CB01F80180839183A283B383CE018956DF
:100C30009E4F20E030E040E85FE3FC01608171817D
:100C4000828193810E946E1B88233CF4CE018156E1
:100C50009E4F21E0FC0120832CC1CE0185569E4F82
:100C600020E03FEF4FE757E4FC0160817181828112
:100C700093810E94891C18160CF0CDC020E030E052
:100C80004AE754E46D817E818F8198850E94731BB1
:100C9000DC01CB019E0120563E4FF90180839183F8
:100CA000A283B3838E010C551E4FCE0180569E4FFA
:100CB00020E030E04AE755E4FC01608171818281E7
:100CC00093810E948E1CDC01CB01F801808391830B
:100CD000A283B383CE018C559E4F20E030E040E8E4
:100CE0005FE3FC0160817181828193810E946E1BB0
:100CF00088234CF4CE0188559E4F21E030E0FC0162
:100D0000318320836DC0CE018C559E4F20E03FEF94
:100D10004FE757E4FC0160817181828193810E94D9
:100D2000891C18160CF04AC0CE0180569E4F20E058
:100D300030E040E251E4FC01608171818281938165
:100D40000E948E1CDC01CB018E0108551E4FBC0198
:100D5000CD010E94E51BDC01CB01F801918380836A
:100D600024C0CE0186559E4F20E931E0FC0131833D
:100D70002083CE0186559E4FFC0180819181019791
:100D8000F1F79E0126553E4FF90191838083CE01F4
:100D900088559E4F9E0128553E4FF9012081318193
:100DA00021503109FC0131832083CE0188559E4FAB
:100DB000FC0180819181892BA1F67BC08E010855B1
:100DC0001E4FCE018C559E4FFC0160817181828146
:100DD00093810E94E51BDC01CB01F80191838083A4
:100DE000CE0184559E4F9E0128553E4FF90120812A
:100DF0003181FC0131832083CE0184559E4FFC015B
:100E0000808191810197F1F79E0124553E4FF901B0
:100E1000918380834EC0CE0189569E4F20E030E002
:100E20004FE753E4FC0160817181828193810E94CC
:100E3000891C18166CF58E0102551E4FCE01855681
:100E40009E4FFC0160817181828193810E94E51B2C
:100E5000DC01CB01F80191838083CE0180559E4F48
:100E60009E0122553E4FF90120813181FC013183E1
:100E70002083CE0180559E4FFC0180819181019796
:100E8000F1F79E0120553E4FF9019183808328C0E0
:100E90008E0101561E4FCE0189569E4FFC01608186
:100EA0007181828193810E94E51BDC01CB01F801F5
:100EB0008083CE018E549E4F9E0121563E4FF901F4
:100EC0002081FC012083CE018E549E4FFC01808145
:100ED000282F2A95F1F7CE018E549E4FFC012083D6
:100EE00085E290E025E230E0F90120812160FC01FB
:100EF000208380E090E0A0E8BFE389879A87AB87F2
:100F0000BC878E0105581E4F2BEA3AEA4AEA50E4A4
:100F100069857A858B859C850E948E1CDC01CB01BE
:100F2000F80180839183A283B3838E0101581E4F01
:100F300020E030E040E850E469857A858B859C8527
:100F40000E948E1CDC01CB01F80180839183A28377
:100F5000B383CE0185589E4F20E030E040E85FE348
:100F6000FC0160817181828193810E946E1B8823C4
:100F70003CF4CE018D579E4F21E0FC0120832CC113
:100F8000CE0181589E4F20E03FEF4FE757E4FC0130
:100F900060817181828193810E94891C18160CF0F6
:100FA000CDC020E030E04AE754E469857A858B853E
:100FB0009C850E94731BDC01CB019E012C573E4F88
:100FC000F90180839183A283B3838E0108571E4F5A
:100FD000CE018C579E4F20E030E04AE755E4FC01FB
:100FE00060817181828193810E948E1CDC01CB0122
:100FF000F80180839183A283B383CE0188579E4FEB
:1010000020E030E040E85FE3FC0160817181828193
:1010100093810E946E1B88234CF4CE0184579E4F0F
:1010200021E030E0FC01318320836DC0CE01885780
:101030009E4F20E03FEF4FE757E4FC016081718154
:10104000828193810E94891C18160CF04AC0CE013F
:101050008C579E4F20E030E040E251E4FC0160817B
:101060007181828193810E948E1CDC01CB018E01F3
:1010700004571E4FBC01CD010E94E51BDC01CB01D2
:10108000F8019183808324C0CE0182579E4F20E9CE
:1010900031E0FC0131832083CE0182579E4FFC0159
:1010A000808191810197F1F79E0122573E4FF9010E
:1010B00091838083CE0184579E4F9E0124573E4FDB
:1010C000F9012081318121503109FC0131832083D4
:1010D000CE0184579E4FFC0180819181892BA1F61E
:1010E0007BC08E0104571E4FCE0188579E4FFC01D6
:1010F00060817181828193810E94E51BDC01CB01BB
:10110000F80191838083CE0180579E4F9E01245722
:101110003E4FF90120813181FC0131832083CE01D2
:1011200080579E4FFC01808191810197F1F79E01CC
:1011300020573E4FF901918380834EC0CE018558E0
:101140009E4F20E030E04FE753E4FC016081718165
:10115000828193810E94891C18166CF58E010E56AF
:101160001E4FCE0181589E4FFC01608171818281AA
:1011700093810E94E51BDC01CB01F8019183808300
:10118000CE018C569E4F9E012E563E4FF901208176
:101190003181FC0131832083CE018C569E4FFC01AE
:1011A000808191810197F1F79E012C563E4FF90104
:1011B0009183808328C08E010D571E4FCE01855824
:1011C0009E4FFC0160817181828193810E94E51BA9
:1011D000DC01CB01F8018083CE018A569E4F9E012F
:1011E0002D573E4FF9012081FC012083CE018A5604
:1011F0009E4FFC018081282F2A95F1F7CE018A5657
:101200009E4FFC01208385E290E025E230E0F90169
:1012100020812E7FFC01208380E090E0A4E3B2E4F3
:101220008D879E87AF87B88B8E01015A1E4F2BEAA0
:101230003AEA4AEA50E46D857E858F8598890E9456
:101240008E1CDC01CB01F80180839183A283B383E0
:101250008E010D591E4F20E030E040E850E46D85CE
:101260007E858F8598890E948E1CDC01CB01F80158
:1012700080839183A283B383CE01815A9E4F20E065
:1012800030E040E85FE3FC016081718182819381FD
:101290000E946E1B88233CF4CE0189599E4F21E0A9
:1012A000FC0120832CC1CE018D599E4F20E03FEFE1
:1012B0004FE757E4FC0160817181828193810E9434
:1012C000891C18160CF0CDC020E030E04AE754E449
:1012D0006D857E858F8598890E94731BDC01CB010B
:1012E0009E0128593E4FF90180839183A283B383E5
:1012F0008E0104591E4FCE0188599E4F20E030E0E8
:101300004AE755E4FC0160817181828193810E94EA
:101310008E1CDC01CB01F80180839183A283B3830F
:10132000CE0184599E4F20E030E040E85FE3FC01AD
:1013300060817181828193810E946E1B88234CF4AD
:10134000CE0180599E4F21E030E0FC0131832083A3
:101350006DC0CE0184599E4F20E03FEF4FE757E428
:10136000FC0160817181828193810E94891C181621
:101370000CF04AC0CE0188599E4F20E030E040E298
:1013800051E4FC0160817181828193810E948E1CF5
:10139000DC01CB018E0100591E4FBC01CD010E9422
:1013A000E51BDC01CB01F8019183808324C0CE01D1
:1013B0008E589E4F20E931E0FC0131832083CE011D
:1013C0008E589E4FFC01808191810197F1F79E011B
:1013D0002E583E4FF90191838083CE0180599E4F54
:1013E0009E0120593E4FF901208131812150310960
:1013F000FC0131832083CE0180599E4FFC01808106
:101400009181892BA1F67BC08E0100591E4FCE0120
:1014100084599E4FFC0160817181828193810E9479
:10142000E51BDC01CB01F80191838083CE018C5850
:101430009E4F9E0120593E4FF90120813181FC01D0
:1014400031832083CE018C589E4FFC018081918195
:101450000197F1F79E012C583E4FF901918380834B
:101460004EC0CE01815A9E4F20E030E04FE753E45A
:10147000FC0160817181828193810E94891C181610
:101480006CF58E010A581E4FCE018D599E4FFC01FE
:1014900060817181828193810E94E51BDC01CB0117
:1014A000F80191838083CE0188589E4F9E012A586F
:1014B0003E4FF90120813181FC0131832083CE012F
:1014C00088589E4FFC01808191810197F1F79E0120
:1014D00028583E4FF9019183808328C08E01095915
:1014E0001E4FCE01815A9E4FFC0160817181828125
:1014F00093810E94E51BDC01CB01F8018083CE01C2
:1015000086589E4F9E0129593E4FF9012081FC01CA
:101510002083CE0186589E4FFC018081282F2A957A
:10152000F1F7CE0186589E4FFC01208380E090E0C9
:10153000A0EAB0E4898B9A8BAB8BBC8B8E010B5AE3
:101540001E4F20E030E04AE755E469897A898B89AB
:101550009C890E948E1CDC01CB01F8018083918361
:10156000A283B383CE018B5A9E4F20E030E040E847
:101570005FE3FC0160817181828193810E946E1B17
:1015800088234CF4CE01875A9E4F21E030E0FC01C5
:101590003183208369C0CE018B5A9E4F20E03FEFFC
:1015A0004FE757E4FC0160817181828193810E9441
:1015B000891C18160CF046C020E030E040E251E4EF
:1015C00069897A898B899C890E948E1CDC01CB01F8
:1015D0008E01075A1E4FBC01CD010E94E51BDC01A4
:1015E000CB01F8019183808324C0CE01855A9E4FA0
:1015F00020E931E0FC0131832083CE01855A9E4FE2
:10160000FC01808191810197F1F79E01255A3E4F9F
:10161000F90191838083CE01875A9E4F9E01275AFC
:101620003E4FF9012081318121503109FC01318384
:101630002083CE01875A9E4FFC0180819181892BA6
:10164000A1F62CC08E01075A1E4FCE018B5A9E4F19
:10165000FC0160817181828193810E94E51BDC0124
:10166000CB01F80191838083CE01835A9E4F9E0166
:10167000275A3E4FF90120813181FC0131832083BB
:10168000CE01835A9E4FFC01808191810197F1F731
:101690009E01235A3E4FF9019183808380E090E0C0
:1016A000A0E8BFE38D8B9E8BAF8BB88F8E01075C5C
:1016B0001E4F2BEA3AEA4AEA50E46D897E898F8907
:1016C000988D0E948E1CDC01CB01F80180839183F0
:1016D000A283B3838E01035C1E4F20E030E040E81C
:1016E00050E46D897E898F89988D0E948E1CDC0163
:1016F000CB01F80180839183A283B383CE01875C01
:101700009E4F20E030E040E85FE3FC0160817181A2
:10171000828193810E946E1B88233CF4CE018F5BF3
:101720009E4F21E0FC0120832CC1CE01835C9E4FA3
:1017300020E03FEF4FE757E4FC0160817181828137
:1017400093810E94891C18160CF0CDC020E030E077
:101750004AE754E46D897E898F89988D0E94731BB6
:10176000DC01CB019E012E5B3E4FF901808391830A
:10177000A283B3838E010A5B1E4FCE018E5B9E4F08
:1017800020E030E04AE755E4FC016081718182810C
:1017900093810E948E1CDC01CB01F8018083918330
:1017A000A283B383CE018A5B9E4F20E030E040E805
:1017B0005FE3FC0160817181828193810E946E1BD5
:1017C00088234CF4CE01865B9E4F21E030E0FC0183
:1017D000318320836DC0CE018A5B9E4F20E03FEFB6
:1017E0004FE757E4FC0160817181828193810E94FF
:1017F000891C18160CF04AC0CE018E5B9E4F20E06B
:1018000030E040E251E4FC0160817181828193818A
:101810000E948E1CDC01CB018E01065B1E4FBC01B9
:10182000CD010E94E51BDC01CB01F801918380838F
:1018300024C0CE01845B9E4F20E931E0FC0131835E
:101840002083CE01845B9E4FFC01808191810197B2
:10185000F1F79E01245B3E4FF90191838083CE0115
:10186000865B9E4F9E01265B3E4FF90120813181B0
:1018700021503109FC0131832083CE01865B9E4FCC
:10188000FC0180819181892BA1F67BC08E01065BD2
:101890001E4FCE018A5B9E4FFC0160817181828167
:1018A00093810E94E51BDC01CB01F80191838083C9
:1018B000CE01825B9E4F9E01265B3E4FF901208147
:1018C0003181FC0131832083CE01825B9E4FFC017C
:1018D000808191810197F1F79E01225B3E4FF901D2
:1018E000918380834EC0CE01875C9E4F20E030E024
:1018F0004FE753E4FC0160817181828193810E94F2
:10190000891C18166CF58E01005B1E4FCE01835C9E
:101910009E4FFC0160817181828193810E94E51B51
:10192000DC01CB01F80191838083CE018E5A9E4F5A
:101930009E01205B3E4FF90120813181FC01318302
:101940002083CE018E5A9E4FFC01808191810197A8
:10195000F1F79E012E5A3E4FF9019183808328C0F2
:101960008E010F5B1E4FCE01875C9E4FFC01608194
:101970007181828193810E94E51BDC01CB01F8011A
:101980008083CE018C5A9E4F9E012F5B3E4FF90102
:101990002081FC012083CE018C5A9E4FFC01808166
:1019A000282F2A95F1F7CE018C5A9E4FFC012083F7
:1019B00085E290E025E230E0F90120812160FC0120
:1019C000208380E090E0A0E8BFE3898F9A8FAB8FFF
:1019D000BC8F8E01035E1E4F2BEA3AEA4AEA50E4BE
:1019E000698D7A8D8B8D9C8D0E948E1CDC01CB01C4
:1019F000F80180839183A283B3838E010F5D1E4F14
:101A000020E030E040E850E4698D7A8D8B8D9C8D2C
:101A10000E948E1CDC01CB01F80180839183A2839C
:101A2000B383CE01835E9E4F20E030E040E85FE369
:101A3000FC0160817181828193810E946E1B8823E9
:101A40003CF4CE018B5D9E4F21E0FC0120832CC134
:101A5000CE018F5D9E4F20E03FEF4FE757E4FC0142
:101A600060817181828193810E94891C18160CF01B
:101A7000CDC020E030E04AE754E4698D7A8D8B8D4B
:101A80009C8D0E94731BDC01CB019E012A5D3E4FA1
:101A9000F90180839183A283B3838E01065D1E4F7B
:101AA000CE018A5D9E4F20E030E04AE755E4FC011C
:101AB00060817181828193810E948E1CDC01CB0147
:101AC000F80180839183A283B383CE01865D9E4F0C
:101AD00020E030E040E85FE3FC01608171818281B9
:101AE00093810E946E1B88234CF4CE01825D9E4F31
:101AF00021E030E0FC01318320836DC0CE01865DA2
:101B00009E4F20E03FEF4FE757E4FC016081718179
:101B1000828193810E94891C18160CF04AC0CE0164
:101B20008A5D9E4F20E030E040E251E4FC0160819C
:101B30007181828193810E948E1CDC01CB018E0118
:101B4000025D1E4FBC01CD010E94E51BDC01CB01F3
:101B5000F8019183808324C0CE01805D9E4F20E9EF
:101B600031E0FC0131832083CE01805D9E4FFC017A
:101B7000808191810197F1F79E01205D3E4FF9012F
:101B800091838083CE01825D9E4F9E01225D3E4FF8
:101B9000F9012081318121503109FC0131832083F9
:101BA000CE01825D9E4FFC0180819181892BA1F63F
:101BB0007BC08E01025D1E4FCE01865D9E4FFC01F3
:101BC00060817181828193810E94E51BDC01CB01E0
:101BD000F80191838083CE018E5C9E4F9E01225D31
:101BE0003E4FF90120813181FC0131832083CE01F8
:101BF0008E5C9E4FFC01808191810197F1F79E01DF
:101C00002E5C3E4FF901918380834EC0CE01835EEE
:101C10009E4F20E030E04FE753E4FC01608171818A
:101C2000828193810E94891C18166CF58E010C5CD0
:101C30001E4FCE018F5D9E4FFC01608171818281BC
:101C400093810E94E51BDC01CB01F8019183808325
:101C5000CE018A5C9E4F9E012C5C3E4FF901208193
:101C60003181FC0131832083CE018A5C9E4FFC01CF
:101C7000808191810197F1F79E012A5C3E4FF90125
:101C80009183808328C08E010B5D1E4FCE01835E41
:101C90009E4FFC0160817181828193810E94E51BCE
:101CA000DC01CB01F8018083CE01885C9E4F9E0150
:101CB0002B5D3E4FF9012081FC012083CE01885C21
:101CC0009E4FFC018081282F2A95F1F7CE01885C78
:101CD0009E4FFC01208385E290E025E230E0F9018F
:101CE00020812E7FFC01208380E090E0A4E3B2E419
:101CF0008D8F9E8FAF8FB8A38E010F5F1E4F2BEA83
:101D00003AEA4AEA50E46D8D7E8D8F8D98A10E944B
:101D10008E1CDC01CB01F80180839183A283B38305
:101D20008E010B5F1E4F20E030E040E850E46D8DE7
:101D30007E8D8F8D98A10E948E1CDC01CB01F80155
:101D400080839183A283B383CE018F5F9E4F20E077
:101D500030E040E85FE3FC01608171818281938122
:101D60000E946E1B88233CF4CE01875F9E4F21E0CA
:101D7000FC0120832CC1CE018B5F9E4F20E03FEF02
:101D80004FE757E4FC0160817181828193810E9459
:101D9000891C18160CF0CDC020E030E04AE754E46E
:101DA0006D8D7E8D8F8D98A10E94731BDC01CB0100
:101DB0009E01265F3E4FF90180839183A283B38306
:101DC0008E01025F1E4FCE01865F9E4F20E030E005
:101DD0004AE755E4FC0160817181828193810E9410
:101DE0008E1CDC01CB01F80180839183A283B38335
:101DF000CE01825F9E4F20E030E040E85FE3FC01CF
:101E000060817181828193810E946E1B88234CF4D2
:101E1000CE018E5E9E4F21E030E0FC0131832083B5
:101E20006DC0CE01825F9E4F20E03FEF4FE757E449
:101E3000FC0160817181828193810E94891C181646
:101E40000CF04AC0CE01865F9E4F20E030E040E2B9
:101E500051E4FC0160817181828193810E948E1C1A
:101E6000DC01CB018E010E5E1E4FBC01CD010E9434
:101E7000E51BDC01CB01F8019183808324C0CE01F6
:101E80008C5E9E4F20E931E0FC0131832083CE013E
:101E90008C5E9E4FFC01808191810197F1F79E013C
:101EA0002C5E3E4FF90191838083CE018E5E9E4F62
:101EB0009E012E5E3E4FF901208131812150310972
:101EC000FC0131832083CE018E5E9E4FFC01808118
:101ED0009181892BA1F67BC08E010E5E1E4FCE0133
:101EE000825F9E4FFC0160817181828193810E949B
:101EF000E51BDC01CB01F80191838083CE018A5E72
:101F00009E4F9E012E5E3E4FF90120813181FC01E2
:101F100031832083CE018A5E9E4FFC0180819181B6
:101F20000197F1F79E012A5E3E4FF901918380836C
:101F30004EC0CE018F5F9E4F20E030E04FE753E46C
:101F4000FC0160817181828193810E94891C181635
:101F50006CF58E01085E1E4FCE018B5F9E4FFC011B
:101F600060817181828193810E94E51BDC01CB013C
:101F7000F80191838083CE01865E9E4F9E01285E8C
:101F80003E4FF90120813181FC0131832083CE0154
:101F9000865E9E4FFC01808191810197F1F79E0141
:101FA000265E3E4FF9019183808328C08E01075F32
:101FB0001E4FCE018F5F9E4FFC0160817181828137
:101FC00093810E94E51BDC01CB01F8018083CE01E7
:101FD000845E9E4F9E01275F3E4FF9012081FC01E8
:101FE0002083CE01845E9E4FFC018081282F2A959C
:101FF000F1F7CE01845E9E4FFC01208380E090E0EB
:10200000A8E4B3E489A39AA3ABA3BCA38E010B51AC
:102010001F4F2BEA3AEA4AEA50E469A17AA18BA160
:102020009CA10E948E1CDC01CB01F801808391836E
:10203000A283B3838E0107511F4F20E030E040E8B8
:1020400050E469A17AA18BA19CA10E948E1CDC01A5
:10205000CB01F80180839183A283B383CE018B519E
:102060009F4F20E030E040E85FE3FC016081718138
:10207000828193810E946E1B88233CF4CE018351A0
:102080009F4F21E0FC0120832CC1CE0187519F4F3F
:1020900020E03FEF4FE757E4FC01608171818281CE
:1020A00093810E94891C18160CF0CDC020E030E00E
:1020B0004AE754E469A17AA18BA19CA10E94731BF9
:1020C000DC01CB019E0122513F4FF90180839183B6
:1020D000A283B3838E010E501F4FCE0182519F4FBA
:1020E00020E030E04AE755E4FC01608171818281A3
:1020F00093810E948E1CDC01CB01F80180839183C7
:10210000A283B383CE018E509F4F20E030E040E8A1
:102110005FE3FC0160817181828193810E946E1B6B
:1021200088234CF4CE018A509F4F21E030E0FC011F
:10213000318320836DC0CE018E509F4F20E03FEF52
:102140004FE757E4FC0160817181828193810E9495
:10215000891C18160CF04AC0CE0182519F4F20E016
:1021600030E040E251E4FC01608171818281938121
:102170000E948E1CDC01CB018E010A501F4FBC0156
:10218000CD010E94E51BDC01CB01F8019183808326
:1021900024C0CE0188509F4F20E931E0FC013183FB
:1021A0002083CE0188509F4FFC018081918101974F
:1021B000F1F79E0128503F4FF90191838083CE01B2
:1021C0008A509F4F9E012A503F4FF9012081318153
:1021D00021503109FC0131832083CE018A509F4F69
:1021E000FC0180819181892BA1F67BC08E010A5070
:1021F0001F4FCE018E509F4FFC0160817181828103
:1022000093810E94E51BDC01CB01F801918380835F
:10221000CE0186509F4F9E012A503F4FF9012081E9
:102220003181FC0131832083CE0186509F4FFC0118
:10223000808191810197F1F79E0126503F4FF9016E
:10224000918380834EC0CE018B519F4F20E030E0C0
:102250004FE753E4FC0160817181828193810E9488
:10226000891C18166CF58E0104501F4FCE01875142
:102270009F4FFC0160817181828193810E94E51BE7
:10228000DC01CB01F80191838083CE0182509F4F06
:102290009E0124503F4FF90120813181FC0131839F
:1022A0002083CE0182509F4FFC0180819181019754
:1022B000F1F79E0122503F4FF9019183808325C0A1
:1022C0008E0103511F4FCE018B519F4FFC01608146
:1022D0007181828193810E94E51BDC01CB01F801B1
:1022E0008083CE0193959E0123513F4FF9012081B8
:1022F000FC012083CE019395FC018081282F2A9533
:10230000F1F7CE019395FC01208380E090E0A0E8F6
:10231000BFE38DA39EA3AFA3B8A78E0107531F4FA2
:102320002BEA3AEA4AEA50E46DA17EA18FA198A572
:102330000E948E1CDC01CB01F80180839183A28373
:10234000B3838E0103531F4F20E030E040E850E498
:102350006DA17EA18FA198A50E948E1CDC01CB01EE
:10236000F80180839183A283B383CE0187539F4F6B
:1023700020E030E040E85FE3FC0160817181828110
:1023800093810E946E1B88233CF4CE018F529F4F95
:1023900021E0FC0120832CC1CE0183539F4F20E01C
:1023A0003FEF4FE757E4FC016081718182819381A7
:1023B0000E94891C18160CF0CDC020E030E04AE7DE
:1023C00054E46DA17EA18FA198A50E94731BDC012E
:1023D000CB019E012E523F4FF90180839183A2834E
:1023E000B3838E010A521F4FCE018E529F4F20E0C1
:1023F00030E04AE755E4FC0160817181828193817C
:102400000E948E1CDC01CB01F80180839183A283A2
:10241000B383CE018A529F4F20E030E040E85FE373
:10242000FC0160817181828193810E946E1B8823EF
:102430004CF4CE0186529F4F21E030E0FC01318305
:1024400020836DC0CE018A529F4F20E03FEF4FE7BF
:1024500057E4FC0160817181828193810E94891C13
:1024600018160CF04AC0CE018E529F4F20E030E08B
:1024700040E251E4FC0160817181828193810E947C
:102480008E1CDC01CB018E0106521F4FBC01CD0119
:102490000E94E51BDC01CB01F8019183808324C0FD
:1024A000CE0184529F4F20E931E0FC01318320832B
:1024B000CE0184529F4FFC01808191810197F1F7F9
:1024C0009E0124523F4FF90191838083CE018652B1
:1024D0009F4F9E0126523F4FF901208131812150AB
:1024E0003109FC0131832083CE0186529F4FFC01CC
:1024F00080819181892BA1F67BC08E0106521F4FEE
:10250000CE018A529F4FFC0160817181828193814B
:102510000E94E51BDC01CB01F80191838083CE0191
:1025200082529F4F9E0126523F4FF90120813181F7
:10253000FC0131832083CE0182529F4FFC018081B8
:1025400091810197F1F79E0122523F4FF90191834A
:1025500080834EC0CE0187539F4F20E030E04FE78D
:1025600053E4FC0160817181828193810E94891C06
:1025700018166CF58E0100521F4FCE0183539F4FEA
:10258000FC0160817181828193810E94E51BDC01E5
:10259000CB01F80191838083CE018E519F4F9E0124
:1025A00020523F4FF90120813181FC01318320838A
:1025B000CE018E519F4FFC01808191810197F1F7EF
:1025C0009E012E513F4FF9019183808328C08E01D7
:1025D0000F521F4FCE0187539F4FFC0160817181C5
:1025E000828193810E94E51BDC01CB01F80180838D
:1025F000CE018C519F4F9E012F523F4FF9012081F8
:10260000FC012083CE018C519F4FFC018081282F3B
:102610002A95F1F7CE018C519F4FFC01208385E272
:1026200090E025E230E0F90120812160FC01208367
:1026300080E090E0A0E8BFE389A79AA7ABA7BCA77A
:102640008E0103551F4F2BEA3AEA4AEA50E469A586
:102650007AA58BA59CA50E948E1CDC01CB01F801FC
:1026600080839183A283B3838E010F541F4F20E098
:1026700030E040E850E469A57AA58BA59CA50E94AE
:102680008E1CDC01CB01F80180839183A283B3838C
:10269000CE0183559F4F20E030E040E85FE3FC012E
:1026A00060817181828193810E946E1B88233CF43A
:1026B000CE018B549F4F21E0FC0120832CC1CE0121
:1026C0008F549F4F20E03FEF4FE757E4FC016081BC
:1026D0007181828193810E94891C18160CF0CDC0F3
:1026E00020E030E04AE754E469A57AA58BA59CA5D3
:1026F0000E94731BDC01CB019E012A543F4FF9015C
:1027000080839183A283B3838E0106541F4FCE0131
:102710008A549F4F20E030E04AE755E4FC01608195
:102720007181828193810E948E1CDC01CB01F801B2
:1027300080839183A283B383CE0186549F4F20E090
:1027400030E040E85FE3FC01608171818281938128
:102750000E946E1B88234CF4CE0182549F4F21E0CF
:1027600030E0FC01318320836DC0CE0186549F4F41
:1027700020E03FEF4FE757E4FC01608171818281E7
:1027800093810E94891C18160CF04AC0CE018A540D
:102790009F4F20E030E040E251E4FC016081718114
:1027A000828193810E948E1CDC01CB018E01025438
:1027B0001F4FBC01CD010E94E51BDC01CB01F801DC
:1027C0009183808324C0CE0180549F4F20E931E063
:1027D000FC0131832083CE0180549F4FFC01808116
:1027E00091810197F1F79E0120543F4FF9019183A8
:1027F0008083CE0182549F4F9E0122543F4FF901A6
:102800002081318121503109FC0131832083CE01A7
:1028100082549F4FFC0180819181892BA1F67BC05E
:102820008E0102541F4FCE0186549F4FFC016081E0
:102830007181828193810E94E51BDC01CB01F8014B
:1028400091838083CE018E539F4F9E0122543F4F30
:10285000F90120813181FC0131832083CE018E5327
:102860009F4FFC01808191810197F1F79E012E53CA
:102870003F4FF901918380834EC0CE0183559F4F16
:1028800020E030E04FE753E4FC01608171818281F8
:1028900093810E94891C18166CF58E010C531F4FF2
:1028A000CE018F549F4FFC016081718182819381A1
:1028B0000E94E51BDC01CB01F80191838083CE01EE
:1028C0008A539F4F9E012C533F4FF9012081318144
:1028D000FC0131832083CE018A539F4FFC0180810C
:1028E00091810197F1F79E012A533F4FF90191839E
:1028F000808328C08E010B541F4FCE0183559F4FFC
:10290000FC0160817181828193810E94E51BDC0161
:10291000CB01F8018083CE0188539F4F9E012B5439
:102920003F4FF9012081FC012083CE0188539F4F46
:10293000FC018081282F2A95F1F7CE0188539F4F03
:10294000FC01208385E290E025E230E0F90120815E
:102950002E7FFC01208380E090E0A4E3B2E48DA709
:102960009EA7AFA7B8AB8E010F561F4F2BEA3AEACE
:102970004AEA50E46DA57EA58FA598A90E948E1CF9
:10298000DC01CB01F80180839183A283B3838E01A4
:102990000B561F4F20E030E040E850E46DA57EA5C7
:1029A0008FA598A90E948E1CDC01CB01F8018083C1
:1029B0009183A283B383CE018F569F4F20E030E0F6
:1029C00040E85FE3FC0160817181828193810E9414
:1029D0006E1B88233CF4CE0187569F4F21E0FC01FB
:1029E00020832CC1CE018B569F4F20E03FEF4FE755
:1029F00057E4FC0160817181828193810E94891C6E
:102A000018160CF0CDC020E030E04AE754E46DA584
:102A10007EA58FA598A90E94731BDC01CB019E01A6
:102A200026563F4FF90180839183A283B3838E01A1
:102A300002561F4FCE0186569F4F20E030E04AE7F6
:102A400055E4FC0160817181828193810E948E1C1A
:102A5000DC01CB01F80180839183A283B383CE0193
:102A600082569F4F20E030E040E85FE3FC01608148
:102A70007181828193810E946E1B88234CF4CE0168
:102A80008E559F4F21E030E0FC01318320836DC0E3
:102A9000CE0182569F4F20E03FEF4FE757E4FC0105
:102AA00060817181828193810E94891C18160CF0CB
:102AB0004AC0CE0186569F4F20E030E040E251E40C
:102AC000FC0160817181828193810E948E1CDC01F6
:102AD000CB018E010E551F4FBC01CD010E94E51B9D
:102AE000DC01CB01F8019183808324C0CE018C5599
:102AF0009F4F20E931E0FC0131832083CE018C55CA
:102B00009F4FFC01808191810197F1F79E012C5527
:102B10003F4FF90191838083CE018E559F4F9E01D7
:102B20002E553F4FF9012081318121503109FC019F
:102B300031832083CE018E559F4FFC01808191818E
:102B4000892BA1F67BC08E010E551F4FCE018256F8
:102B50009F4FFC0160817181828193810E94E51BFE
:102B6000DC01CB01F80191838083CE018A559F4F10
:102B70009E012E553F4FF90120813181FC013183A7
:102B80002083CE018A559F4FFC018081918101975E
:102B9000F1F79E012A553F4FF901918380834EC082
:102BA000CE018F569F4F20E030E04FE753E4FC0109
:102BB00060817181828193810E94891C18166CF555
:102BC0008E0108551F4FCE018B569F4FFC0160812F
:102BD0007181828193810E94E51BDC01CB01F801A8
:102BE00091838083CE0186559F4F9E0128553F4F8C
:102BF000F90120813181FC0131832083CE0186558A
:102C00009F4FFC01808191810197F1F79E0126552C
:102C10003F4FF9019183808328C08E0107561F4FD3
:102C2000CE018F569F4FFC0160817181828193811B
:102C30000E94E51BDC01CB01F8018083CE018455A5
:102C40009F4F9E0127563F4FF9012081FC012083B1
:102C5000CE0184559F4FFC018081282F2A95F1F7E2
:102C6000CE0184559F4FFC01208380E090E0A0E8D6
:102C7000BFE389AB9AABABABBCAB8E010B581F4F1C
:102C80002BEA3AEA4AEA50E469A97AA98BA99CA9F5
:102C90000E948E1CDC01CB01F80180839183A2830A
:102CA000B3838E0107581F4F20E030E040E850E426
:102CB00069A97AA98BA99CA90E948E1CDC01CB0171
:102CC000F80180839183A283B383CE018B589F4FF9
:102CD00020E030E040E85FE3FC01608171818281A7
:102CE00093810E946E1B88233CF4CE0183589F4F32
:102CF00021E0FC0120832CC1CE0187589F4F20E0AA
:102D00003FEF4FE757E4FC0160817181828193813D
:102D10000E94891C18160CF0CDC020E030E04AE774
:102D200054E469A97AA98BA99CA90E94731BDC01B0
:102D3000CB019E0122583F4FF90180839183A283EA
:102D4000B3838E010E571F4FCE0182589F4F20E054
:102D500030E04AE755E4FC01608171818281938112
:102D60000E948E1CDC01CB01F80180839183A28339
:102D7000B383CE018E579F4F20E030E040E85FE301
:102D8000FC0160817181828193810E946E1B882386
:102D90004CF4CE018A579F4F21E030E0FC01318393
:102DA00020836DC0CE018E579F4F20E03FEF4FE74D
:102DB00057E4FC0160817181828193810E94891CAA
:102DC00018160CF04AC0CE0182589F4F20E030E028
:102DD00040E251E4FC0160817181828193810E9413
:102DE0008E1CDC01CB018E010A571F4FBC01CD01A7
:102DF0000E94E51BDC01CB01F8019183808324C094
:102E0000CE0188579F4F20E931E0FC0131832083B8
:102E1000CE0188579F4FFC01808191810197F1F786
:102E20009E0128573F4FF90191838083CE018A5735
:102E30009F4F9E012A573F4FF90120813181215038
:102E40003109FC0131832083CE018A579F4FFC0159
:102E500080819181892BA1F67BC08E010A571F4F7B
:102E6000CE018E579F4FFC016081718182819381D9
:102E70000E94E51BDC01CB01F80191838083CE0128
:102E800086579F4F9E012A573F4FF901208131817C
:102E9000FC0131832083CE0186579F4FFC01808146
:102EA00091810197F1F79E0126573F4FF9019183D8
:102EB00080834EC0CE018B589F4F20E030E04FE71B
:102EC00053E4FC0160817181828193810E94891C9D
:102ED00018166CF58E0104571F4FCE0187589F4F6F
:102EE000FC0160817181828193810E94E51BDC017C
:102EF000CB01F80191838083CE0182579F4F9E01C1
:102F000024573F4FF90120813181FC013183208317
:102F1000CE0182579F4FFC01808191810197F1F78B
:102F20009E0122573F4FF9019183808328C08E0173
:102F300003581F4FCE018B589F4FFC016081718158
:102F4000828193810E94E51BDC01CB01F801808323
:102F5000CE0180579F4F9E0123583F4FF90120819A
:102F6000FC012083CE0180579F4FFC018081282FD8
:102F70002A95F1F7CE0180579F4FFC01208385E20F
:102F800090E025E230E0F90120812160FC012083FE
:102F900080E090E0A0E8BFE38DAB9EABAFABB8AFF5
:102FA0008E01075A1F4F2BEA3AEA4AEA50E46DA90C
:102FB0007EA98FA998AD0E948E1CDC01CB01F8017F
:102FC00080839183A283B3838E01035A1F4F20E035
:102FD00030E040E850E46DA97EA98FA998AD0E9429
:102FE0008E1CDC01CB01F80180839183A283B38323
:102FF000CE01875A9F4F20E030E040E85FE3FC01BC
:1030000060817181828193810E946E1B88233CF4D0
:10301000CE018F599F4F21E0FC0120832CC1CE01AE
:10302000835A9F4F20E03FEF4FE757E4FC01608158
:103030007181828193810E94891C18160CF0CDC089
:1030400020E030E04AE754E46DA97EA98FA998AD4D
:103050000E94731BDC01CB019E012E593F4FF901E9
:1030600080839183A283B3838E010A591F4FCE01BF
:103070008E599F4F20E030E04AE755E4FC01608123
:103080007181828193810E948E1CDC01CB01F80149
:1030900080839183A283B383CE018A599F4F20E01E
:1030A00030E040E85FE3FC016081718182819381BF
:1030B0000E946E1B88234CF4CE0186599F4F21E05D
:1030C00030E0FC01318320836DC0CE018A599F4FCF
:1030D00020E03FEF4FE757E4FC016081718182817E
:1030E00093810E94891C18160CF04AC0CE018E599B
:1030F0009F4F20E030E040E251E4FC0160817181AB
:10310000828193810E948E1CDC01CB018E010659C5
:103110001F4FBC01CD010E94E51BDC01CB01F80172
:103120009183808324C0CE0184599F4F20E931E0F0
:10313000FC0131832083CE0184599F4FFC018081A3
:1031400091810197F1F79E0124593F4FF901918335
:103150008083CE0186599F4F9E0126593F4FF9012A
:103160002081318121503109FC0131832083CE013E
:1031700086599F4FFC0180819181892BA1F67BC0EC
:103180008E0106591F4FCE018A599F4FFC01608165
:103190007181828193810E94E51BDC01CB01F801E2
:1031A00091838083CE0182599F4F9E0126593F4FC4
:1031B000F90120813181FC0131832083CE018259C4
:1031C0009F4FFC01808191810197F1F79E01225967
:1031D0003F4FF901918380834EC0CE01875A9F4FA4
:1031E00020E030E04FE753E4FC016081718182818F
:1031F00093810E94891C18166CF58E0100591F4F8F
:10320000CE01835A9F4FFC0160817181828193813D
:103210000E94E51BDC01CB01F80191838083CE0184
:103220008E589F4F9E0120593F4FF90120813181D7
:10323000FC0131832083CE018E589F4FFC01808199
:1032400091810197F1F79E012E583F4FF90191832B
:10325000808328C08E010F591F4FCE01875A9F4F80
:10326000FC0160817181828193810E94E51BDC01F8
:10327000CB01F8018083CE018C589F4F9E012F59BE
:103280003F4FF9012081FC012083CE018C589F4FD4
:10329000FC018081282F2A95F1F7CE018C589F4F91
:1032A000FC01208385E290E025E230E0F9012081F5
:1032B0002E7FFC01208380E090E0A4E3B2E489AF9C
:1032C0009AAFABAFBCAF2BEA3AEA4AEA50E469AD39
:1032D0007AAD8BAD9CAD0E948E1CDC01CB019E01B2
:1032E000235C3F4FF90180839183A283B3838E01D6
:1032F0000F5B1F4F20E030E040E850E469AD7AAD4D
:103300008BAD9CAD0E948E1CDC01CB01F80180834B
:103310009183A283B38320E030E040E85FE3CE01F5
:10332000CD96FC0160817181828193810E946E1B28
:1033300088233CF4CE018B5B9F4F21E0FC0120836E
:103340002AC1CE018F5B9F4F20E03FEF4FE757E44C
:10335000FC0160817181828193810E94891C181611
:103360000CF0CDC020E030E04AE754E469AD7AAD1E
:103370008BAD9CAD0E94731BDC01CB019E012A5BCF
:103380003F4FF90180839183A283B3838E01065B53
:103390001F4FCE018A5B9F4F20E030E04AE755E4A3
:1033A000FC0160817181828193810E948E1CDC010D
:1033B000CB01F80180839183A283B383CE01865B26
:1033C0009F4F20E030E040E85FE3FC0160817181C5
:1033D000828193810E946E1B88234CF4CE01825B14
:1033E0009F4F21E030E0FC01318320836DC0CE018E
:1033F000865B9F4F20E03FEF4FE757E4FC01608181
:103400007181828193810E94891C18160CF04AC038
:10341000CE018A5B9F4F20E030E040E251E4FC01A6
:1034200060817181828193810E948E1CDC01CB01BD
:103430008E01025B1F4FBC01CD010E94E51BDC0128
:10344000CB01F8019183808324C0CE01805B9F4F24
:1034500020E931E0FC0131832083CE01805B9F4F66
:10346000FC01808191810197F1F79E01205B3F4F24
:10347000F90191838083CE01825B9F4F9E01225B85
:103480003F4FF9012081318121503109FC01318305
:103490002083CE01825B9F4FFC0180819181892B2B
:1034A000A1F679C08E01025B1F4FCE01865B9F4F54
:1034B000FC0160817181828193810E94E51BDC01A6
:1034C000CB01F80191838083CE018E5A9F4F9E01DC
:1034D000225B3F4FF90120813181FC013183208340
:1034E000CE018E5A9F4FFC01808191810197F1F7A7
:1034F0009E012E5A3F4FF901918380834CC020E0FA
:1035000030E04FE753E4CE01CD96FC01608171813C
:10351000828193810E94891C18166CF58E010C5AC9
:103520001F4FCE018F5B9F4FFC01608171818281B3
:1035300093810E94E51BDC01CB01F801918380831C
:10354000CE018A5A9F4F9E012C5A3F4FF90120818C
:103550003181FC0131832083CE018A5A9F4FFC01C7
:10356000808191810197F1F79E012A5A3F4FF9011D
:103570009183808327C08E010B5B1F4FCE01CD96B8
:10358000FC0160817181828193810E94E51BDC01D5
:10359000CB01F8018083CE01885A9F4F9E012B5B9F
:1035A0003F4FF9012081FC012083CE01885A9F4FB3
:1035B000FC018081282F2A95F1F7CE01885A9F4F70
:1035C000FC01208360E088E00E94510060E081E01F
:1035D0000E94510060E08CE00E94510060E080E8B1
:1035E0000E9451000000C454DE4F0FB6F894DEBFB5
:1035F0000FBECDBFDF91CF911F910F910895CF9353
:10360000DF9300D0CDB7DEB79A8389830CC0898160
:103610009A81FC01808161E00E94510089819A8138
:1036200001969A83898389819A81FC01808188230C
:1036300071F700000F900F90DF91CF910895CF9315
:10364000DF93CDB7DEB727970FB6F894DEBF0FBE76
:10365000CDBF84E290E02FEFFC0120838AE290E06E
:103660002FEFFC01208381EC90E0FC0110820E948E
:103670001305198213C08981882F90E088599F4FC4
:103680009B838A838A819B81FC0184918C838C81BA
:1036900061E00E94510089818F5F89838981813136
:1036A00050F360E080EC0E945100198213C08981C0
:1036B000882F90E087589F4F9E838D838D819E81B8
:1036C000FC0184918F838F8161E00E945100898188
:1036D0008F5F89838981813150F3FFCF0E94141C51
:1036E00008F481E008950E94871B0C944F1C0E94EF
:1036F000481C58F00E94411C40F029F45F3F29F01B
:103700000C94381C51110C94831C0C943E1C0E9488
:10371000601C68F39923B1F3552391F3951B550B66
:10372000BB27AA2762177307840738F09F5F5F4F94
:10373000220F331F441FAA1FA9F335D00E2E3AF0D3
:10374000E0E832D091505040E695001CCAF72BD0EB
:10375000FE2F29D0660F771F881FBB1F261737073C
:103760004807AB07B0E809F0BB0B802DBF01FF276E
:1037700093585F4F3AF09E3F510578F00C94381CF7
:103780000C94831C5F3FE4F3983ED4F386957795C1
:103790006795B795F7959F5FC9F7880F911D969527
:1037A000879597F90895E1E0660F771F881FBB1F83
:1037B000621773078407BA0720F0621B730B840B30
:1037C000BA0BEE1F88F7E09508950E94681C88F0F8
:1037D0009F5798F0B92F9927B751B0F0E1F0660FD5
:1037E000771F881F991F1AF0BA95C9F714C0B13016
:1037F00091F00E94821CB1E008950C94821C672F06
:10380000782F8827B85F39F0B93FCCF38695779544
:103810006795B395D9F73EF490958095709561952D
:103820007F4F8F4F9F4F0895990F0008550FAA0B98
:10383000E0E8FEEF16161706E807F907C0F01216C3
:103840001306E407F50798F0621B730B840B950BC6
:1038500039F40A2661F0232B242B252B21F408951B
:103860000A2609F4A140A6958FEF811D811D0895B8
:1038700097F99F6780E870E060E008959FEF80EC23
:10388000089500240A9416161706180609060895C6
:1038900000240A9412161306140605060895092E2C
:1038A0000394000C11F4882352F0BB0F40F4BF2B9B
:1038B00011F460FF04C06F5F7F4F8F4F9F4F0895DB
:1038C00057FD9058440F551F59F05F3F71F04795D1
:1038D000880F97FB991F61F09F3F79F087950895B6
:1038E000121613061406551FF2CF4695F1DF08C0D5
:1038F000161617061806991FF1CF869571056105F2
:1039000008940895E894BB2766277727CB0197F999
:1039100008950E94141C08F48FEF08950E94A11CC2
:103920000C944F1C0E94411C38F00E94481C20F04F
:10393000952311F00C94381C0C943E1C11240C940B
:10394000831C0E94601C70F3959FC1F3950F50E09B
:10395000551F629FF001729FBB27F00DB11D639F41
:10396000AA27F00DB11DAA1F649F6627B00DA11DE7
:10397000661F829F2227B00DA11D621F739FB00D8D
:10398000A11D621F839FA00D611D221F749F3327FD
:10399000A00D611D231F849F600D211D822F762F96
:1039A0006A2F11249F5750409AF0F1F088234AF073
:1039B000EE0FFF1FBB1F661F771F881F91505040DF
:1039C000A9F79E3F510580F00C94381C0C94831C81
:1039D0005F3FE4F3983ED4F3869577956795B79566
:1039E000F795E7959F5FC1F7FE2B880F911D969580
:0A39F000879597F90895F894FFCF2A
:00000001FF
