:100000000C9434000C9467000C9417010C943E007F
:100010000C943E000C943E000C943E000C943E0068
:100020000C943E000C943E000C943E000C943E0058
:100030000C943E000C943E000C943E000C943E0048
:100040000C943E000C943E000C943E000C943E0038
:100050000C943E000C943E000C943E000C943E0028
:100060000C943E000C943E0011241FBECFEFD8E04C
:10007000DEBFCDBF0E9440000C94E2020C94000051
:10008000CF93DF93CDB7DEB78AE290E0FC01108218
:100090008BE290E02FEFFC01208384E290E020E3EC
:1000A000FC01208385E290E02FECFC01208381ECB1
:1000B00090E0FC01108289E690E02EE0FC012083B4
:1000C0008DE390E023E0FC0120837894FFCF1F9222
:1000D0000F9200905F000F9211242F933F934F9344
:1000E0005F936F937F938F939F93AF93BF93EF93A0
:1000F000FF93CF93DF93CDB7DEB72E97DEBFCDBF93
:1001000085E290E025E230E0F901308120E223270A
:10011000FC01208380E090E0A8E4B3E489839A8323
:10012000AB83BC8320E030E04AE755E469817A8103
:100130008B819C810E944D02DC01CB018D839E83CB
:10014000AF83B88720E030E040E85FE36D817E81D7
:100150008F8198850E94C70188232CF481E090E06C
:100160009A8789873FC020E03FEF4FE757E46D81D2
:100170007E818F8198850E94480218164CF520E0F8
:1001800030E040E251E469817A818B819C810E9458
:100190004D02DC01CB01BC01CD010E94CC01DC0190
:1001A000CB019A8789870FC080E991E09C878B8774
:1001B0008B859C850197F1F79C878B8789859A852C
:1001C00001979A87898789859A85892B69F714C051
:1001D0006D817E818F8198850E94CC01DC01CB01ED
:1001E0009A87898789859A859E878D878D859E8543
:1001F0000197F1F79E878D8700002E960FB6F89431
:10020000DEBF0FBECDBFDF91CF91FF91EF91BF91C8
:10021000AF919F918F917F916F915F914F913F919E
:100220002F910F9000925F000F901F9018951F92D2
:100230000F9200905F000F9211242F933F934F93E2
:100240005F936F937F938F939F93AF93BF93EF933E
:10025000FF93CF93DF93CDB7DEB72E97DEBFCDBF31
:1002600085E290E025E230E0F901308120E12327AA
:10027000FC01208380E090E0A8E4B3E489839A83C2
:10028000AB83BC8320E030E04AE755E469817A81A2
:100290008B819C810E944D02DC01CB018D839E836A
:1002A000AF83B88720E030E040E85FE36D817E8176
:1002B0008F8198850E94C70188232CF481E090E00B
:1002C0009A8789873FC020E03FEF4FE757E46D8171
:1002D0007E818F8198850E94480218164CF520E097
:1002E00030E040E251E469817A818B819C810E94F7
:1002F0004D02DC01CB01BC01CD010E94CC01DC012F
:10030000CB019A8789870FC080E991E09C878B8712
:100310008B859C850197F1F79C878B8789859A85CA
:1003200001979A87898789859A85892B69F714C0EF
:100330006D817E818F8198850E94CC01DC01CB018B
:100340009A87898789859A859E878D878D859E85E1
:100350000197F1F79E878D8700002E960FB6F894CF
:10036000DEBF0FBECDBFDF91CF91FF91EF91BF9167
:10037000AF919F918F917F916F915F914F913F913D
:100380002F910F9000925F000F901F9018950E9480
:10039000FB0108F481E008950E94270288F09F572E
:1003A00098F0B92F9927B751B0F0E1F0660F771F99
:1003B000881F991F1AF0BA95C9F714C0B13091F08F
:1003C0000E944102B1E008950C944102672F782FFA
:1003D0008827B85F39F0B93FCCF386957795679554
:1003E000B395D9F73EF490958095709561957F4FC0
:1003F0008F4F9F4F0895990F0008550FAA0BE0E803
:10040000FEEF16161706E807F907C0F012161306D6
:10041000E407F50798F0621B730B840B950B39F416
:100420000A2661F0232B242B252B21F408950A267C
:1004300009F4A140A6958FEF811D811D089557FDF8
:100440009058440F551F59F05F3F71F04795880F42
:1004500097FB991F61F09F3F79F0879508951216D9
:1004600013061406551FF2CF4695F1DF08C0161685
:1004700017061806991FF1CF869571056105089436
:100480000895E894BB2766277727CB0197F908954D
:100490000E94FB0108F48FEF08950E9460020C9403
:1004A000D1020E94C30238F00E94CA0220F09523B4
:1004B00011F00C94BA020C94C00211240C94420264
:1004C0000E941F0270F3959FC1F3950F50E0551FD6
:1004D000629FF001729FBB27F00DB11D639FAA2799
:1004E000F00DB11DAA1F649F6627B00DA11D661FE8
:1004F000829F2227B00DA11D621F739FB00DA11D09
:10050000621F839FA00D611D221F749F3327A00DC2
:10051000611D231F849F600D211D822F762F6A2F5E
:1005200011249F5750409AF0F1F088234AF0EE0FC3
:10053000FF1FBB1F661F771F881F91505040A9F7F0
:100540009E3F510580F00C94BA020C9442025F3F2A
:10055000E4F3983ED4F3869577956795B795F7952C
:10056000E7959F5FC1F7FE2B880F911D96958795A4
:1005700097F9089597F99F6780E870E060E0089523
:100580009FEF80EC089500240A94161617061806AB
:100590000906089500240A94121613061406050687
:1005A0000895092E0394000C11F4882352F0BB0F18
:1005B00040F4BF2B11F460FF04C06F5F7F4F8F4F7B
:0805C0009F4F0895F894FFCF4E
:00000001FF
