:100000000C9434000C9467000C9434010C943E0062
:100010000C943E000C943E000C943E000C943E0068
:100020000C943E000C943E000C943E000C943E0058
:100030000C943E000C943E000C943E000C943E0048
:100040000C943E000C943E000C943E000C943E0038
:100050000C943E000C943E000C943E000C943E0028
:100060000C943E000C943E0011241FBECFEFD8E04C
:10007000DEBFCDBF0E9440000C94FF020C94000034
:10008000CF93DF93CDB7DEB78AE290E020ECFC019E
:1000900020838BE290E02FEFFC01208381EC90E045
:1000A000FC01108289E690E0FC0110828DE390E073
:1000B00023E0FC01208378948BE290E02BE230E097
:1000C000F901308120E22327FC012083F5CF1F9224
:1000D0000F9200905F000F9211242F933F934F9344
:1000E0005F936F937F938F939F93AF93BF93EF93A0
:1000F000FF93CF93DF93CDB7DEB72F97DEBFCDBF92
:100100008FE590E0FC01808189838DE390E02DE311
:1001100030E0F90120812E7FFC01208378948BE26E
:1001200090E02BE230E0F901308120E42327FC014C
:10013000208380E090E0A6E9B3E48A839B83AC83CC
:10014000BD8320E030E04AE755E46A817B818C8101
:100150009D810E946A02DC01CB018E839F83A88768
:10016000B98720E030E040E85FE36E817F818885D9
:1001700099850E94E40188232CF481E090E09B871C
:100180008A873FC020E03FEF4FE757E46E817F81D1
:10019000888599850E94650218164CF520E030E0AC
:1001A00040E251E46A817B818C819D810E946A02D8
:1001B000DC01CB01BC01CD010E94E901DC01CB01D6
:1001C0009B878A870FC080E991E09D878C878C850B
:1001D0009D850197F1F79D878C878A859B8501977F
:1001E0009B878A878A859B85892B69F714C06E81D6
:1001F0007F81888599850E94E901DC01CB019B877D
:100200008A878A859B859F878E878E859F850197A4
:10021000F1F79F878E878DE390E02DE330E0F901C1
:1002200020812160FC0120838FE590E02981FC0181
:10023000208300002F960FB6F894DEBF0FBECDBF0F
:10024000DF91CF91FF91EF91BF91AF919F918F91EE
:100250007F916F915F914F913F912F910F900092FD
:100260005F000F901F9018951F920F9200905F00F3
:100270000F9211242F933F934F935F936F937F932C
:100280008F939F93AF93BF93EF93FF93CF93DF939E
:10029000CDB7DEB72E97DEBFCDBF8BE290E02BE26D
:1002A00030E0F901308120E42327FC01208380E045
:1002B00090E0A8E4B3E489839A83AB83BC8320E015
:1002C00030E04AE755E469817A818B819C810E9404
:1002D0006A02DC01CB018D839E83AF83B88720E067
:1002E00030E040E85FE36D817E818F8198850E94D8
:1002F000E40188232CF481E090E09A8789873FC04D
:1003000020E03FEF4FE757E46D817E818F81988534
:100310000E94650218164CF520E030E040E251E4FE
:1003200069817A818B819C810E946A02DC01CB0108
:10033000BC01CD010E94E901DC01CB019A878987CC
:100340000FC080E991E09C878B878B859C85019706
:10035000F1F79C878B8789859A8501979A8789878A
:1003600089859A85892B69F714C06D817E818F817B
:1003700098850E94E901DC01CB019A8789878985EC
:100380009A859E878D878D859E850197F1F79E873B
:100390008D8700002E960FB6F894DEBF0FBECDBF3E
:1003A000DF91CF91FF91EF91BF91AF919F918F918D
:1003B0007F916F915F914F913F912F910F9000929C
:1003C0005F000F901F9018950E94180208F481E0BA
:1003D00008950E94440288F09F5798F0B92F9927FA
:1003E000B751B0F0E1F0660F771F881F991F1AF020
:1003F000BA95C9F714C0B13091F00E945E02B1E025
:1004000008950C945E02672F782F8827B85F39F023
:10041000B93FCCF3869577956795B395D9F73EF4B8
:1004200090958095709561957F4F8F4F9F4F089560
:10043000990F0008550FAA0BE0E8FEEF16161706F5
:10044000E807F907C0F012161306E407F50798F05D
:10045000621B730B840B950B39F40A2661F0232B76
:10046000242B252B21F408950A2609F4A140A695F2
:100470008FEF811D811D089557FD9058440F551F22
:1004800059F05F3F71F04795880F97FB991F61F016
:100490009F3F79F087950895121613061406551F8D
:1004A000F2CF4695F1DF08C0161617061806991FF9
:1004B000F1CF86957105610508940895E894BB27EE
:1004C00066277727CB0197F908950E94180208F450
:1004D0008FEF08950E947D020C94EE020E94E002CC
:1004E00038F00E94E70220F0952311F00C94D70217
:1004F0000C94DD0211240C945F020E943C0270F304
:10050000959FC1F3950F50E0551F629FF001729FB8
:10051000BB27F00DB11D639FAA27F00DB11DAA1FC7
:10052000649F6627B00DA11D661F829F2227B00D14
:10053000A11D621F739FB00DA11D621F839FA00D9F
:10054000611D221F749F3327A00D611D231F849FEF
:10055000600D211D822F762F6A2F11249F57504046
:100560009AF0F1F088234AF0EE0FFF1FBB1F661FC1
:10057000771F881F91505040A9F79E3F510580F08A
:100580000C94D7020C945F025F3FE4F3983ED4F3DF
:10059000869577956795B795F795E7959F5FC1F72E
:1005A000FE2B880F911D9695879597F9089597F9D9
:1005B0009F6780E870E060E008959FEF80EC089509
:1005C00000240A9416161706180609060895002432
:1005D0000A9412161306140605060895092E0394AC
:1005E000000C11F4882352F0BB0F40F4BF2B11F420
:1005F00060FF04C06F5F7F4F8F4F9F4F0895F89447
:02060000FFCF2A
:00000001FF
